:020000040800F2
:10000000E81800209D0100087B3C0008CD34000862
:10001000793C0008150E0008F948000800000000AF
:1000200000000000000000000000000005010008C2
:10003000871600080000000049010008D5420008AA
:10004000B7010008B7010008B7010008B7010008B0
:10005000B7010008B7010008B7010008B7010008A0
:10006000B7010008B7010008B70100082116000811
:100070002D1600083916000845160008511600080C
:10008000B7010008B7010008B7010008B701000870
:10009000B7010008B7010008B70100088916000879
:1000A000B701000865430008B7010008B701000860
:1000B000B7010008B701000871430008B701000844
:1000C000B7010008B7010008B7010008B701000830
:1000D000B701000839480008B7010008994800082E
:1000E000B7010008B7010008B7010008DFF810D019
:1000F00000F07AFD00480047CD710008AFF30080A2
:10010000E8180020224B19680868B0E8F00F80F367
:100110000988BFF36F8F4FF0000080F311884EF015
:100120000D0E70470000000006480068006880F36C
:10013000088862B661B6BFF34F8FBFF36F8F00DFE1
:1001400000BF00BF08ED00E0EFF30980BFF36F8F41
:100150000F4B1A6820E9F00F106008B54FF05000FF
:1001600080F31188BFF34F8FBFF36F8F08F0E4FC6B
:100170004FF0000080F31188BDE808401968086856
:10018000B0E8F00F80F30988BFF36F8F704700BFAE
:1001900020010020EFF305807047000006488047EB
:1001A00006480047FEE7FEE7FEE7FEE7FEE7FEE75C
:1001B000FEE7FEE7FEE7FEE761430008ED0000080A
:1001C0002DE9F0410024061B254671F1000605DAF1
:1001D00001240027D0EB070067EB0101161E73F125
:1001E000000605DA0027D2EB0702012567EB0303BF
:1001F00000F064FB86460E4617469C46AC4204D08F
:100200000025D0EB050E65EB010624B10020D2EBF2
:10021000000760EB030C704631463A466346BDE882
:10022000F081202A04DB203A21FA02F000217047F5
:1002300021FA02F3D040C2F120029140084319464E
:10024000704740EA01039B0703D009E008C9121F69
:1002500008C0042AFAD203E011F8013B00F8013B80
:10026000521EF9D27047D2B201E000F8012B491EAC
:10027000FBD270470022F6E710B513460A46044643
:100280001946FFF7F0FF204610BD30B504460020A8
:10029000034600E05B1C934203D2E05CCD5C401B54
:1002A000F8D030BDF0B480EA0102D40F4200B2EBC6
:1002B000410F02D20246084611464A0042D0C30D01
:1002C000DDB2C1F3C752AD1A202D35DAC1F31601E4
:1002D00041F4000204B15242C5F1200602FA06F1CF
:1002E0002A411044B3EBD05F23D0C4B1012DA0EB61
:1002F000C35009DCF0BC4FF0004202EAC352DBB24B
:1003000000F5000000F035BB400000F1807000EB0C
:10031000C350A0F1807040EAD170490009E049085B
:1003200041EAC071A0EBC35000F50000400800EBAB
:10033000C350F0BC00F014BB6142012202EB41014A
:10034000001BF6E7F0BC704781F00041AAE780F09F
:100350000040A7E780EA010210B502F00043400028
:1003600022D04A001FD0010E01EB1261C0F35600EB
:10037000C2F3560240F4000042F40002A0FB022047
:1003800000047F39140400D0401C50EA124001D40C
:100390004000491EC2B20C0604EBD010401C4008BD
:1003A000802A02D003E0002010BD20F001000029C7
:1003B00000DA0020184310BD30B480EA010202F0D8
:1003C000004530F0004221F0004013D090B1C30D41
:1003D000D40DC2F31601C0F31600E41A41F4000173
:1003E00040F400027D34914201D3641C00E04900D6
:1003F000002C02DA30BC002070474FF400000023CC
:10040000914201D3891A034340084FEA4101F7D1D1
:1004100051B1914202D14FF0004105E002D24FF0BC
:10042000010101E06FF0010103EBC450284430BC2E
:1004300000F096BA420005D0C0F3C7525242914232
:1004400001DC0020704700EBC15070472DE9FE4FE2
:10045000804681EA0300C00F0C46009021F0004165
:1004600023F00045B8EB0200A94105D240462146E1
:1004700090461C460B46024623F00040104347D0EE
:10048000270DC7F30A00C3F30A510290401A0190E6
:1004900040286BDAC3F3130040F4801B00989246A7
:1004A00020B10023D2EB030A63EB0B0B01985946F2
:1004B000C0F14002504600F032FA06460D46504662
:1004C0005946019A00F03AFA10EB08006141002405
:1004D00087EA115284EAE7731A4340D0009A62B364
:1004E000019A012A4FEA075215DC001B61EB020159
:1004F0004FF0004202EA0752CDE90042001C41F5EC
:10050000801132462B4600F071FA03B0BDE8F08F3F
:1005100040462146F9E7001B61EB0201001C41F552
:10052000801300185B412018A2F5001747EB030168
:1005300040EAD570B6196D4111E06D084FEA3606F4
:1005400045EAC0754FEA0752001B61EB0201001C2F
:1005500041F5801149084FEA3000001951413246F7
:100560002B4603B0BDE8F04F00F031BA00980122ED
:1005700040000023D0EB020263EBE07300982146B9
:100580004FEAE074B8EB000061EB0401E9E783F0A7
:1005900000435BE781F0004158E72DE9FE4F81EA17
:1005A000030404F0004421F0004100944FF0000BDC
:1005B00023F0004350EA01045ED052EA03045BD00A
:1005C000C3F30A54C1F30A552C44A4F2F334019442
:1005D000A0FB0254C1F3130141F48011C3F31303D0
:1005E00043F4801301FB024400FB034E840A970A84
:1005F00044EA815447EA8357A4FB076802958D0AB1
:1006000005FB07854FEA932C04FB0C542705029D3C
:100610004FEA065847EA1637B5EB08056EEB070CAC
:10062000870E920E47EA811742EA8312A7FB020166
:10063000B6EB0B0164EB00042B0D43EA0C335E18A0
:1006400044EB1C50DA465146E7FB0201C5F31304A4
:100650004FEA0B3343EA14534FEA0432019C43EA56
:100660000603A4F10C040294009CCDE900B400F050
:10067000BDF903B0BDE8F08F00200146F9E72DE990
:10068000F04D81EA030404F0004B21F000451446CC
:100690004FF0000A23F0004150EA050220D054EA4E
:1006A00001021DD0C5F30A570246C5F31303C1F377
:1006B0001300C1F30A5640F4801543F48013A7EBEE
:1006C0000608101BD64608F2FD3873EB050002D36E
:1006D00008F1010801E092185B41B8F1000F03DA5C
:1006E00000200146BDE8F08D00204FF48011064641
:1006F00084460EE0171B73EB050705D3121B63EB53
:10070000050306434CEA010C49084FEA30009218F1
:100710005B4150EA0107EDD152EA030012D082EAB0
:10072000040083EA0501084305D0101BAB4106D243
:100730000122002306E000224FF0004302E06FF0A8
:10074000010253101AEB06004CEB085110EB0A00A3
:1007500041EB0B01BDE8F04D00F039B9C10F80EA63
:10076000E0700844CA079623002100F002B99623DE
:100770000022114600F0FDB80EB5C10F80EAE0700E
:100780000844CA07002140F233438DE80E000A46B0
:100790000B4600F02BF903B000BD00F0004220F042
:1007A0000040C10DC0F3160040F400007F2901DABB
:1007B00000207047962903DCC1F19601C84001E092
:1007C00096398840002AF4D04042704720F000401B
:1007D000C10DC0F3160040F400007F2901DA0020AB
:1007E0007047962903DCC1F19601C84070479639DD
:1007F0008840704770B5C1F30A5201F000450024EB
:10080000C1F3130140F2FF3341F480119A4201DA3F
:10081000002070BD40F233439A42A2F2334203DC1F
:100820005242FFF7FEFC00E090402C43F1D04042E2
:1008300070BD00F0004230F000400AD0C10D01F55B
:100840006071C0F3160042EA0151C208400711432B
:10085000704700200146704701F0004330B421F09A
:10086000004150EA010206D00A0DA2F56072C1F300
:100870001301002A02DC30BC00207047440F44EA18
:10088000C104C100E01830BC00EBC25000F068B8F1
:1008900030B50B46014600202022012409E021FA50
:1008A00002F59D4205D303FA02F5491B04FA02F54D
:1008B0002844151EA2F10102F1DC30BD2DE9F05FE4
:1008C0000546002092469B468846064681464024BF
:1008D0001BE02846414647462246FFF7A2FC534606
:1008E0005A46C01A914110D311461846224600F0CC
:1008F00016F82D1A67EB01084F4622460120002109
:1009000000F00DF817EB00094E41201EA4F1010480
:10091000DFDC484631462A464346BDE8F09F202AA0
:1009200004DB203A00FA02F1002070479140C2F146
:10093000200320FA03F3194390407047202A06DB76
:10094000CB17203A41FA02F043EAE07306E041FA9D
:1009500002F3D040C2F1200291400843194670478B
:100960000029A8BF7047401C490008BF20F00100C3
:10097000704710B4B0FA80FC00FA0CF050EA0104A1
:1009800004BF10BC704749B1CCF1200421FA04F433
:1009900011FA0CF118BF012121430843A3EB0C010C
:1009A000CB1D4FEA00614FEA102042BF002010BC6F
:1009B000704700EBC35010440029A4BF10BC70471F
:1009C000401C490008BF20F0010010BC704710B562
:1009D000141E73F1000408DA401C41F10001921862
:1009E0005B411A4301D120F0010010BD2DE9F04D0B
:1009F00092469B4611B1B1FA81F202E0B0FA80F260
:100A000020329046FFF78BFF04460F4640EA0A006B
:100A100041EA0B0153465A46084313D0114653EAA4
:100A2000010019D0C8F140025046FFF7FAFB054615
:100A30000E46504659464246FFF771FF084305D01F
:100A4000012004E020463946BDE8F08D0020054332
:100A500046EAE0762C4337430A986305E40AA0EBA4
:100A600008000022FD0A44EA47540A3002D500205B
:100A70000146E9E7010510196941DDE9084500195A
:100A80006941BDE8F04DA2E770B521F00043034392
:100A90000CD0C1F30A550024D5EB040564EB040324
:100AA000D617AD1AB34102DB0020014670BD2018F5
:100AB00041EB025170BD2DE9F04D00231A461B1A7F
:100AC0008A4103DB00200146BDE8F08DC1F30A52E4
:100AD000C1F3130141F480154FF0000BD10702D18F
:100AE00000186D41521E0027044640F2FF1138469F
:100AF00001EB620A3E468046024600204FF4801118
:100B0000FFF78FFBC2197141BB1846EB0100B4EB34
:100B1000030C75EB000C04D3E41A65EB00051746D3
:100B20000E46241908F101006D4180463428E3DDAA
:100B3000F91946EB0600091BA84103D24FF0FF321A
:100B4000134601E0002213461BEB070046EB0A5157
:100B5000BDE8F04DFFF73BBFC1F30A52C1F31301EB
:100B600040F2FF3341F480119A4202DA002001463C
:100B7000704740F233439A42A2F2334202DC5242BF
:100B8000FFF74FBBFFF7CBBE30B5041E71F1000479
:100B900004DB4FF00044404264EB0101141E73F18A
:100BA000000405DB1C464FF00043524263EB040394
:100BB0008B4208BF824230BD30B5041E71F1000483
:100BC00004DB4FF00044404264EB0101141E73F15A
:100BD000000405DB1C464FF00043524263EB040364
:100BE000994208BF904230BD064C074D06E0E068D0
:100BF00040F0010394E8070098471034AC42F6D364
:100C0000FFF778FA44A6000864A600080EB540F283
:100C1000334102910021CDE900110A460B46FFF74E
:100C2000E5FE03B000BD70B58C1810F8015B15F03F
:100C3000070301D110F8013B2A1106D110F8012B4E
:100C400003E010F8016B01F8016B5B1EF9D12B0773
:100C500005D40023521E0DD401F8013BFAE710F829
:100C6000013BCB1A921C03E013F8015B01F8015B16
:100C7000521EF9D5A142D8D3002070BD70B50446EC
:100C800000688168C943C90717D1816821F0010153
:100C9000816001F0CFFA05460AE000BF01F0CAFA10
:100CA000401B022804D920688068C043C00706D0D2
:100CB00020688068C043C007F0D0002070BDA06AE3
:100CC00040F01000A062E06A40F00100E062012004
:100CD00070BD0000F8B500260446009600688168E3
:100CE000C943C9072DD0816841F0010181601648D0
:100CF00016490068B0FBF1F000E0401E00900028AB
:100D0000FBD101F097FA054616E000BF01F092FA18
:100D1000401B022810D920688068C043C0070BD050
:100D2000A06A40F01000A062E06A40F00100E062BA
:100D300084F824600120F8BD20688068C043C007A3
:100D4000E4D10020F8BD00001000002040420F0058
:100D500030B52F4902788B789A4257D1027BCB78F5
:100D60009A4253D100230122845C521C2344DBB2FB
:100D70000A2AF9DDC27A9A4248D101230022841856
:100D800001EB82056478EC62447A1C40D4408D18F3
:100D90005B061B0E521C85F84C40082AEFDB486BA3
:100DA00080384860886B80388860086B8038C860FD
:100DB000C86A80380861C86B80384861086C803820
:100DC0008861486C80384862886CC86191F84C0032
:100DD000012891F84D0008D001280AD0002088622F
:100DE00091F84E00012806D007E00128F7D0042032
:100DF000F5E70220F3E70320886291F84F0001280D
:100E000001D106208862486D401C486530BD000055
:100E100040070020FEE700002DE9F84FCC4B1A1FD9
:100E2000111FA1F10805281D07F02EFC2869FFF706
:100E3000A3FCC84AC84BFFF7B0FBC84C06460F4698
:100E40002069FFF7F6FC32463B46FFF7A0FBFFF7B1
:100E500003FDDFF80C93C34E2061484503DD3146A6
:100E6000FFF772FA2061C049884203D93146FFF783
:100E700019FA2061BD4EB6F90A00FFF76FFC024671
:100E80007169206903F058FDE06500F037FCAB6A3A
:100E9000B74ADFF8E082DFF8E0A2B848B849012796
:100EA0000026062B63D2DFE803F00309621E313D02
:100EB000286900EB80008000E06558E000689042FF
:100EC0002ADB01E0AE600CE0884229DAFFF73CFA49
:100ED000FFF7AFFC42465346FFF75FFBFFF78AFC84
:100EE000A860A76443E0A749D0F80080884501DDE9
:100EF000AE603CE0206DFFF731FC4146FFF727FA7A
:100F0000616DFFF727FAFFF748FC2FE02B6903EB31
:100F100083039B00E365D1E7AA68002AD4DDD1E70B
:100F2000A66424E098480368012B01D19748E06546
:100F300097480068012802D16FF0C701E165954923
:100F40000A68012A01D1C821E1659349096801298C
:100F500003D14FF4FA7CC4F85CC0012B05D1012801
:100F600003D1012A01D1012929D00F20A860AB6843
:100F70006A6803EB8300A2EB0211800000EB4101E1
:100F8000E06DC2EB0212520003EB8303A1EB000CF5
:100F900002EB830213180144C4E90031101A6F4BAD
:100FA000C4E9020C0C331A1F111F081F03F014F8B8
:100FB00020217A4801F02CF918B1E76402E0E665D7
:100FC00096E7E664606CD8B300231A4619461846C3
:100FD00003F02CF86869FFF7C1FB714F3946FFF742
:100FE000B9F9DFF8C0814146FFF7E6F9A16BFFF7D9
:100FF00059F90646A063A869FFF7B0FB3946FFF729
:10100000A9F94146FFF7D8F9E16BFFF74BF907461D
:10101000E063686AFFF7A2FBDFF88C814146FFF7C7
:1010200099F96249FFF7C8F9614A6063614962480A
:10103000974216D8614A974206D9864213DB14E0DC
:10104000FFE794E80F00C3E75D495E4A8F4205DA87
:10105000864208DB96420BDDA26309E05A489742BC
:10106000EBDBE263E9E7A06302E08E4200DDA1630F
:101070003A48343000F130030090D4E90E011A1FD1
:1010800004F0CAFDA86A06284BD0216E40468A4665
:10109000FFF75AF9DFF834814146FFF75BF94F4615
:1010A0004946FFF789F90646606AFFF757FB314664
:1010B000FFF74AF9FFF771FB6061616E50468946A0
:1010C000FFF742F94146FFF745F93946FFF774F952
:1010D0000646A06AFFF742FB3146FFF735F9FFF7F6
:1010E0005CFBA0614946606BFFF72EF94146FFF7B4
:1010F00031F93946FFF760F90646E06AFFF72EFB43
:101100003146FFF7CFF8FFF748FBE061E8694FF49D
:10111000FA714843C11700EB1160216B01EB2020ED
:1011200006E0606A6061A06AA061E06AE061206B2D
:101130002062606C012802D14FF4AF602062143449
:1011400094E80F0001B0BDE8F04F02F0E3BF0000EB
:1011500050070020B81E85EB51B88E3F14000020C8
:10116000000034430000B443000034C308070020EB
:1011700000007A43CDCCCCCCCCCCF43FC0000020D6
:10118000000048430000AF43CC0000200CFEFFFFEE
:10119000D0000020D4000020D8000020000801402A
:1011A0000000C841000020450000B4420000FE429B
:1011B0000000B4C20000DC420000BE420000F0C1EA
:1011C0000000C84200000C43000070420000FA44D6
:1011D00070B500F075FA474C47A0B4F9001003F061
:1011E000EBFBB4F9021047A003F0E6FBB4F90410DE
:1011F00047A003F0E1FBB4F9061048A003F0DCFBC4
:10120000B4F9081049A003F0D7FBB4F90A104BA0B9
:1012100003F0D2FBE068FFF70CFB02460B464BA045
:1012200003F0CAFB2069FFF704FB02460B464AA005
:1012300003F0C2FB6069FFF7FCFA02460B4649A0C7
:1012400003F0BAFB4AA003F0B7FB4A480068FFF777
:10125000F0FA02460B4648A003F0AEFB494C4A4860
:10126000A16D31B1012906D0022931D003290DD158
:1012700035E0082105E00821054600F0CEFF1021E9
:101280002BE000F0CAFFA06D401CA0653F4D4FF45D
:101290008041284600F0C1FF6914284600F0BDFFD8
:1012A0003B4800F057FC6421394800F0B5FB0028AA
:1012B0000DD1374800F0D8FAFFF759FAFFF7B9FA1D
:1012C000344A354BFFF769F9FFF7C6FAA06670BDDF
:1012D0001021054600F0A1FF20212846D1E720215A
:1012E000054600F09AFF0821284600F096FF0120ED
:1012F000CBE70000080700206163635F78203D2092
:1013000025640A006163635F79203D2025640A003B
:101310006163635F7A203D2025640A006779726FFC
:101320005F78203D2025640A000000006779726F15
:101330005F79203D2025640A000000006779726F04
:101340005F7A203D2025640A000000007069746304
:1013500068203D2025660A00726F6C6C203D2025B8
:10136000660A0000796177203D2025660A000000AA
:101370000D0A0000C0000020646973203D2025662E
:101380000A00000014000020000C01400010014081
:10139000DC030020A374E95F92CA743F064A10B5CB
:1013A000111F081F05F0D4FFBDE810404FF40041A5
:1013B000024800F032BF00001C0700200008014076
:1013C000F8B56248624E0022436D716C13B132640D
:1013D00042650EE0336C5B1C3364032B09DDC1B93D
:1013E00002235CA206211E2002F08AFD0120706407
:1013F0000FE0012900D17264806A062824D030B33E
:1014000001284FF0020325D054A206211E2002F02D
:1014100077FDF06C4FF0010301281DD050A2072189
:101420005A2002F06DFD4F4C4F4F0225E0682B46CD
:10143000B84213D32D2201212E2002F0ADFCE0682A
:10144000009580F0004210E0022348A2DDE702236D
:1014500048A2DAE749A2D8E74AA2E0E72022012120
:101460002E2002F099FC0095E2680323012132202E
:1014700002F0D6FC20694FF00203B84209D32D22B6
:1014800002212E2002F088FC2069009580F00042A5
:1014900006E0202202212E2002F07EFC0095226927
:1014A00003230221322002F0BBFC60694FF00203EB
:1014B000B84209D32D2203212E2002F06DFC606971
:1014C000009580F0004206E0202203212E2002F049
:1014D00063FC0095626903231946322002F0A0FCE8
:1014E0000223202204212E2002F056FC2648006808
:1014F000FFF76CF90246042319463820009502F0E4
:10150000C7FC012321A20421502002F0F9FC009520
:10151000042305211420B26E02F082FC1C4804232F
:10152000052102795A20009502F0B2FCB06C4FF010
:101530000103012807D017A201B00421BDE8F04043
:101540005F2002F0DDBC14A2F6E700004007002097
:101550001400002072786C6F73730000202020202C
:10156000202020000807002000008080666163744E
:101570006F7279006D616E75616C200073746162C9
:10158000696C20006F666600C00000206D6D000071
:10159000B8070020202000002121000010B502F033
:1015A0006DFB012312A21946184602F0A9FC012383
:1015B00011A20221184602F0A3FC012310A203216C
:1015C000184602F09DFC01230FA20421184602F0E8
:1015D00097FC01230EA20521184602F091FC01237D
:1015E0000521BDE810400CA2462002F089BC000095
:1015F00070697463683A0000726F6C6C3A000000A6
:101600007961773A000000006469733A00000000D5
:101610006261743A000000006B65793A00000000D6
:10162000014800F067BB00000C040020014800F0F6
:1016300061BB00007C060020014800F05BBB00009D
:1016400038060020014800F055BB0000F4050020DA
:10165000014800F04FBB0000B005002030B590F805
:1016600040500124AC40C56B6C6004686360436803
:10167000102B036803D099600068C26030BD9A6087
:101680000068C16030BD70474FF4807000F0C4BC8A
:10169000704700F0CFBD00000148006870470000AF
:1016A000242C014010B500F0C5FD00EB4001C1EB5A
:1016B000C0100249096801EBC00010BD242C014094
:1016C00070B501220B4ED5032946304600F0ADFD22
:1016D000FFF7E8FF00F10A04FFF7E4FFA042FBD3A5
:1016E00000222946304600F0A0FD03490878401C3E
:1016F000087070BD00100140B80000202DE9F041D5
:101700004FF40041164800F083FD01250026154CDA
:1017100001281DD0C4F80060134F4FF480513846A3
:1017200000F076FD012815D0C4F804604FF4005194
:10173000384600F06DFD01280ED0A6604FF48041C0
:10174000384600F065FD012808D0E660BDE8F0816C
:101750002560E1E76560E9E7A560EFE7E560F5E7AB
:1017600000080140CC000020000C0140F8B5002426
:10177000009490F824202546012A12D0012280F8F6
:1017800024204A681F23072A0DD20668776B521E51
:1017900002EB820293409F430B6893401F437763A1
:1017A00019E00220F8BD06680D2A0AD2376BD21F55
:1017B00002EB820293409F430B6893401F433763C1
:1017C00009E0F76A0D3A02EB820293409F430B68EF
:1017D00093401F43F7620A68072306680A2A0AD360
:1017E000F7680A3A02EB420293409F438B689340AA
:1017F0001F43F76008E0376902EB420293409F43C2
:101800008B6893401F4337610A68102A01D0112A60
:1018100020D1124B02689A4217D193681B0219D447
:10182000936843F4000393600968102912D10C49AE
:101830000C4A0968B1FBF2F101EB8101490000E0BB
:10184000491E00910029FBD104E0816A41F020018A
:101850008162012480F824502046F8BD0024014014
:101860001000002040420F000068C06C704700006C
:101870002DE9F0414FF0000704003D467ED0A06AFC
:10188000002628B9E66284F82460204600F07EF83D
:101890002046FFF7F3F9A16AC90600D420B1A06A77
:1018A00040F01000A06269E0A16A21F4885141F083
:1018B0000201A1626268E169237B0A4347EA4301AE
:1018C0000A43A1684FF48077B94209D0012907D0B3
:1018D0005FF0000194F814C0BCF1010F02D00AE0DF
:1018E0003946F7E7F3B1A36A43F02003A362E36A42
:1018F00043F00103E3622368D3F804C02CF4694C7D
:101900004CEA010CC3F804C021688B68DFF870C092
:1019100003EA0C0313438B60A168B9420BD0012981
:1019200009D00CE0DFF85CC0A3690CEB43330B4338
:1019300043F40061DFE7218A0D05A5F580152168D4
:10194000CB6A23F470032B43CB62216889680E4B6A
:101950001940914208D1E662A16A21F0020141F0EA
:101960000101A162BDE8F081A06A20F0020040F010
:101970001000A062E06A40F00100E0620120F1E79F
:10198000FDF7E1FF00E0FFFFFE0E1FFF70B586B020
:1019900000250646009501950295039500681949B2
:1019A00088422DD11849886940F40070886188699F
:1019B00000F400700490886940F004008861886930
:1019C000694600F00400049010200090032001906C
:1019D0000E4800F02DFB0F4C0D48C4E90005802097
:1019E000C4E90250400020618000C4E9050520469A
:1019F000E56100F029FA08B1FFF74AFE3462666239
:101A000006B070BD002401400010024000080140F3
:101A1000080002400C0400202DE9F84300270D4681
:101A20000446009700F006FC804620688168C905DE
:101A300008D5A06A40F02000A06284F8247001203C
:101A4000BDE8F8834168C90503D4C06A10F4700F7B
:101A50002AD0022000F0B8FC3B490968B1FBF0F63F
:101A60002068036939490B424FEA61014FEAA1122C
:101A70001FD1C3684FEA611C13EA0C0F19D1036927
:101A80000B4225D1C068104222D1142023E0681CEB
:101A90000AD02DB100F0CEFBA0EB0800A84203D97C
:101AA00020680068800725D5206800688007EED58B
:101AB0002DE003690B4202D1C168114206D00269D0
:101AC00023490A4206D1C068084203D1542002E0EB
:101AD000292000E0FC204643009816E0681C11D045
:101AE0002DB100F0A7FBA0EB0800A8420AD900988E
:101AF000B04207D2A06A40F00400A06284F82470CB
:101B000003209DE70098401C0090B042E6D3216876
:101B10006FF012000860A06A40F40070A0622068B4
:101B20008068C0F3424007280CD1207B50B9A06ADE
:101B300020F48070A062A06AC00403D4A06A40F0C0
:101B40000100A06200207BE71000002024499224BD
:101B50004992240070B5044690F8240001280DD065
:101B6000012084F824002046FFF7B4F802004FF06B
:101B7000000005D084F82400104670BD022070BD1E
:101B8000A16A40F20123994341F48071A1621F4D83
:101B900023681F49AB4218D10E6816F4702F14D079
:101BA000A66A46F48016A6620E68760505D5A66A72
:101BB00026F4005646F48056A662A66AF6040AD5B4
:101BC000E66A26F00606E66206E0A66A26F48016B5
:101BD000A6625E68E9E7E06284F824006FF0020024
:101BE000186020688368C3F34243072B05D1A842DD
:101BF00008D1096811F4702F04D0816841F4801174
:101C00008160B9E7816841F4A001F9E7002801404B
:101C10000424014010B590F821100022022905D0BB
:101C20000421816380F82020012010BD01680B6829
:101C300023F00E030B6001680B6823F001030B60B7
:101C400090F84030C46B012101FA03F3636080F81F
:101C5000211080F82020104610BD000010B590F82B
:101C600021100024022903D00421816301243DE0D6
:101C700001680A6822F00E020A6001680A6822F010
:101C800001020A601A4A0168914201D1012121E052
:101C9000174A1432914201D110211BE0144A283214
:101CA000914201D1891515E0114A3C32914201D18E
:101CB00089140FE00E4A5032914202D14FF4803124
:101CC00008E00B4A6432914202D14FF4801101E0E6
:101CD0004FF08071064A083A5160012180F82110C6
:101CE000002180F82010416B01B18847204610BDCB
:101CF000080002402DE9F05FC16B0C6801680B68B9
:101D0000D0F840C0042202FA0CF2494DDFF824A1B9
:101D1000494E4A4FDFF828B1DFF828E122422CD0A3
:101D20005A072AD50A68920603D40A6822F00402E8
:101D30000A600168A94201D1042219E0514501D18C
:101D4000402215E0B14202D14FF4806210E0B94266
:101D500002D14FF480420BE0594502D14FF480226A
:101D600006E0714502D14FF4800201E04FF080623D
:101D70002F4908394A60C16A3BE04FF0020808FA6F
:101D80000CF818EA040F4FF000094FF0010235D0AB
:101D90005FEA837832D50B689B0605D40B6823F085
:101DA0000A030B6080F821200168A94201D10222B8
:101DB00019E0514501D1202215E0B14202D14FF482
:101DC000007210E0B94202D14FF400520BE05945C5
:101DD00002D14FF4003206E0714502D14FF40012F7
:101DE00001E04FF00072124908394A6080F82090F3
:101DF000816A00291AD0BDE8F05F0847082505FA76
:101E00000CF5254212D01B0710D50B6823F00E03EA
:101E10000B6090F84010C36B02FA01F159608263C5
:101E200080F8212080F82090016BE2E7BDE8F09F68
:101E3000080002401C000240300002404400024002
:101E4000580002406C00024030B528B308C813495E
:101E500014221944B1FBF2F18900C1631049816376
:101E6000022141771A6843F6F0718A43D0E90014E1
:101E70002143D0E902452C432143046921434469AD
:101E800021438469214311431960002141630122E8
:101E900042770177084630BD012030BDF8FFFDBF15
:101EA0000000024070B5044690F82000002501288B
:101EB0000CD0012084F8200094F821600020012E2D
:101EC00006D084F820000225284670BD022070BD8F
:101ED000022684F82160A0632068066826F00106C7
:101EE00006602046FFF7BAFBE06A00282068016818
:101EF00002D041F00E0106E021F0040101602068EB
:101F0000016841F00A0101602068016841F00101A7
:101F10000160D9E770B5044600F08CF90546601CF5
:101F200002D004480078044400F084F9401BA04229
:101F3000FAD370BD140100202DE9F0414FF48076F2
:101F4000B04248D1294F3146384600F061F9284C5B
:101F50000128A4F10C0540D03146384600F058F96C
:101F6000002838D1FFF795FBE080FFF795FB80B2A2
:101F7000A080E1886288891A01EB4102C2EBC1119D
:101F800000EBC1002188461A6E60A868FEF751FC7C
:101F9000184A194BFEF701FB07460C463046FEF780
:101FA000E6FBFEF746FC154A154BFEF7F6FA154A16
:101FB000154BFEF7F2FA3A462346FEF747FAFEF7CC
:101FC0004BFCA860FEF735FC02460B460FA002F062
:101FD000F3FC00202870BDE8F081FFF75AFB608019
:101FE000FFF75AFB20802878401CF3E700080140E7
:101FF000C40000209A9999999999B93FC3F5285C32
:102000008FC2C53FCDCCCCCCCCCCEC3F6469732027
:102010003D2025660A000000044910B50A68024206
:1020200002D00860FFF788FF10BD000014040140D3
:102030002DE9F84FDFF8B891002409F1040A0AF1FC
:10204000040B23460F270BF1040EC9E00125A54020
:102050002A40AA427DD1674ED1F804C0ACEB0608F5
:10206000B44532D014DCBCF1030F3AD009DCBCF12A
:10207000000F2AD0BCF1010F1CD0BCF1020F31D1EE
:102080001DE0BCF1110F17D0BCF1120F2AD119E0DD
:10209000B8F5881F19D006DCB8F5803F15D0B8F523
:1020A000801F1FD111E0B8F5001F0ED0B8F5041F36
:1020B00018D10AE0CB6815E0CB681B1D12E0CB6895
:1020C00008330FE0CB680C330CE08B682BB1012B8D
:1020D0004FF0080303D0456104E0042302E00561EA
:1020E00000E00023FF2A01D8064601E000F10406C3
:1020F0004FEA840501D9A5F12005D6F8008007FA3A
:1021000005FC28EA0C0803FA05F548EA0508C6F8B4
:1021100000804D68ED0062D5374DAE6946F001068E
:10212000AE61AD6924F0030605F001050095334D5D
:1021300006EB050CDCF80850A607360F07FA06F880
:1021400025EA0805DFF8B880404503D14FF00008C4
:1021500017E044E0DFF8AC80404502D14FF00108C1
:102160000FE0DFF8A480404502D14FF0020808E0FC
:10217000DFF89880404502D14FF0030801E04FF0AE
:10218000040808FA06F848EA0508CCF808804D6803
:10219000D9F80060ED034D4601D5164300E09643A3
:1021A0002E604D68DAF80060AD03554601D5164340
:1021B00000E096432E604D68DBF80060ED025D465E
:1021C00001D5164300E096432E604D68DEF80060AE
:1021D000AD02754601D5164300E096432E60641C9F
:1021E0000D682A46E5407FF431AFBDE8F88F000066
:1021F00000040140000011100010024000000140E6
:1022000000080140000C0140001001400014014092
:102210008068084000D001207047C26821EA0203AC
:102220000A4043EA0241016170470AB10161704707
:102230000904FBE701488068704700001401002092
:1022400002488168027811448160704714010020BF
:10225000074810B5016841F010010160032000F04B
:10226000A1F8002000F006F800F04AF8002010BDA8
:102270000020024030B505461C4887B0816941F412
:1022800000618161806906A900F40060009001A8E6
:1022900000F00AFA00F038FA1549164AB0FBF1F1DD
:1022A0001548491E0260416040F2E7320021C0E952
:1022B00003218160816100F033FC040012D10E48DB
:1022C00000F05CFC04000DD1192000F03DF8102D49
:1022D00007D200222946192000F044F8074805607B
:1022E00000E0012407B0204630BD0000001002408D
:1022F00040420F00002C0140C006002018010020C1
:102300000F4808B5816941F001018161816901F0DF
:1023100001010091C16941F08051C161C069002291
:1023200000F0805000900F21901E00F01BF805482F
:10233000416821F0E06141F00071416008BD00009A
:102340000010024000000140002809DB00F01F02DD
:10235000012191404009800000F1E020C0F8001107
:1023600070470000F0B40E4B1B680C46C3F3022309
:10237000C3F10705042D00D90425191D072901D231
:10238000002300E0DB1E012606FA05F1491E21406C
:1023900099409E40761E16403143F0BC02F030BB9F
:1023A0000CED00E0064900F0070208684FF6FF0355
:1023B000184040EA0220034A1043086070470000BA
:1023C0000CED00E00000FA0510B529A401461DCC73
:1023D00086B08DE81D002AA02A4C006804900020D9
:1023E000012923D002293AD010291DD16168226821
:1023F000D20119D5C1F38342C9031DF8020009D5E2
:10240000616804AAC1F34041515C1F4AB2FBF1F17B
:10241000484301E01D4948436168490204D4400033
:102420005FF00301B0FBF1F006B010BD226AC2F309
:102430000121012903D1920701D5C803F4E702293C
:1024400005D1626A920702D549F64040ECE70329BC
:10245000EAD121688903E7D54FF22440E4E700F090
:1024600053F96168C1F38131491C4900DAE7000082
:1024700002030405060708090A0B0C0D0E0F1010C5
:10248000010200000010024000127A0000093D0025
:102490002DE9F84305460078354CC00754D0E06973
:1024A0000026C00008D4E06940F08050E061E06997
:1024B000012600F0805000902E480168C90512D412
:1024C0000168804641F480710160FFF7B3FE074662
:1024D00005E000BFFFF7AEFEC01B642823D8D8F884
:1024E0000000C005F6D5206A10F4407021D0A988FC
:1024F00001F4407181421CD0206A1F49012220F45E
:1025000040700A6000220A602062C00711D0FFF705
:1025100091FE074641F2883808E000BFFFF78AFEC7
:10252000C11B414502D90320BDE8F883206A80071A
:10253000F4D5206A696820F44070084320621EB117
:10254000E06920F08050E0612878800705D5606858
:10255000A96820F44040084360602878C00605D58B
:102560006068E96820F48000084360600020DBE7D1
:102570000010024000700040400442422DE9F04744
:102580000F46050061D0434E306800F00700B842A6
:1025900009D2306820F0070038433060306800F01E
:1025A0000700B84251D128683B4C810712D540073B
:1025B00003D5606840F4E06060602878000703D5C8
:1025C000606840F4605060606068A96820F0F000C6
:1025D000084360602878C00728D06868012810D0B8
:1025E0002168022810D0890700292EDA616821F0BD
:1025F000030101436160FFF71DFE804641F2883907
:102600000DE021688903EFE78901EDE7FFF712FE8E
:10261000A0EB0801494502D90320BDE8F0876068B6
:10262000696800F00C00B0EB810FEFD1306800F06A
:102630000700B8420BD9306820F0070038433060FB
:10264000306800F00700B84201D00120E5E72878A3
:10265000400705D56068E96820F4E06008436060E1
:102660002878000706D56068296920F4605040EAA0
:10267000C100606000F058F86168084AC1F30311B6
:10268000515CC8400649086006480068FFF7F2FD43
:102690000020C2E70020024000100240E88E00083F
:1026A00010000020180100200F2202600C4A53681D
:1026B00003F003034360536803F0F003836053683F
:1026C00003F4E063C36052684FF4E06303EAD202AC
:1026D00002610448006800F00700086070470000CD
:1026E0000010024000200240044805490068496883
:1026F000044AC1F30221515CC84070471000002019
:1027000000100240F88E0008044805490068496836
:10271000044AC1F3C221515CC84070471000002038
:1027200000100240F88E000812A185B00FC98DE894
:102730000F0014A0144A006804905168134801F077
:102740000C03042B10D0082B0ED1C1F38343C90313
:102750001DF803000AD5516804AAC1F34041515C39
:102760000A4A5043B0FBF1F005B0704708494843AE
:10277000FAE7000002030405060708090A0B0C0D1E
:102780000E0F1010010200000010024000127A002B
:1027900000093D002DE9F84F040070D02078C04DAD
:1027A000C00749D06868C0F38100012807D0686875
:1027B000C0F38100022809D16868C00306D52868E3
:1027C000800339D560680028E7D035E06068B0F54F
:1027D000803F0BD010B1B0F5A02F11D0286820F4A5
:1027E00080302860286820F4802002E0286840F4C7
:1027F00080302860606890B1FFF71CFD06460AE053
:10280000286840F480202860F0E700BFFFF712FD41
:10281000801B642873D828688003F7D50CE0FFF785
:1028200009FD064605E000BFFFF704FD801B642894
:10283000F0D828688003F7D420789A4E80074FF0AC
:1028400001094FF0000839D5686810F00C0F07D067
:102850006868C0F38100022809D16868C00306D403
:102860002868800714D52069012808D110E0206964
:10287000B0B1C6F80090FFF7DDFC074605E00AE1BD
:10288000FFF7D8FCC01B0228C4D828688007F7D5FA
:102890002868616920F0F80040EAC10028600DE076
:1028A000C6F80080FFF7C6FC074604E0FFF7C2FC4D
:1028B000C01B022823D828688007F7D42078000797
:1028C0002CD57948A169D9B1C0F80090FFF7B2FCC6
:1028D000074604E0FFF7AEFCC01B02280FD8686A69
:1028E0008007F7D571484FF4FA510068B0FBF1F05A
:1028F000009000BF0098411E0091FAD20EE080E0E7
:10290000C0F80080FFF796FC074604E0FFF792FC52
:10291000C01B022875D8686A8007F7D42078400762
:1029200060D5E8690027C00008D4E86940F080500D
:10293000E861E869012700F0805000905C48016878
:10294000C90513D40168834641F480710160FFF723
:1029500071FC824606E000BFFFF76CFCA0EB0A00AA
:1029600064284ED8DBF80000C005F5D5E0680128E2
:102970000AD008B1052813D0286A20F00100286287
:10298000286A20F0040002E0286A40F00100286272
:10299000E06841F2883B98B1FFF74CFC82460BE0BF
:1029A000286A40F004002862EEE700BFFFF742FC0F
:1029B000A0EB0A0159455AD8286A8007F6D50CE0E1
:1029C000FFF738FC824605E0FFF734FCA0EB0A0174
:1029D00059454CD8286A8007F6D41FB1E86920F021
:1029E0008050E861E06988B36968C1F38101022918
:1029F00044D00228C6F8608004D0FFF71BFC0446D0
:102A000038E034E0FFF716FC074604E0FFF712FC5D
:102A1000C01B02282BD828688001F7D4206AB0F5A3
:102A2000803F05D16868A16820F4003008436860E1
:102A3000D4E908010843696821F474110843686007
:102A4000C6F86090FFF7F6FB044606E025E000BFFD
:102A5000FFF7F0FB001B022809D828688001F7D592
:102A60001BE000BFFFF7E6FB001B022802D9032092
:102A7000BDE8F88F28688001F4D40EE00128F7D073
:102A80006868226A00F48031914204D1616A00F4DE
:102A90007010884201D00120EAE70020E8E700003A
:102AA0000010024000004242800442421000002018
:102AB000007000407047704770B590F83C20012AC4
:102AC00026D0012480F83C40022280F83D20036893
:102AD0005A689D6822F070060A6832435A600D4BAE
:102AE00002689A4208D0B2F1804F05D00A4B9A4250
:102AF00002D00A4B9A4204D1496825F08003194359
:102B0000916080F83D40002180F83C10084670BD7F
:102B1000022070BD002C014000040040000800406D
:102B200010B5040003D094F83D0010B107E0012077
:102B300010BD002084F83C00204600F01EF8022062
:102B400084F83D00211D206801F018FC012084F864
:102B5000460084F83E0084F83F0084F8400084F882
:102B6000410084F8420084F8430084F8440084F86B
:102B7000450084F83D00002010BD704790F83D10DE
:102B8000012901D001207047022180F83D10016821
:102B9000CA6842F00102CA6000680B49884208D046
:102BA000B0F1804F05D00949884202D008498842D7
:102BB00004D1816801F00701062903D0016841F0C2
:102BC0000101016000207047002C0140000400401A
:102BD00000080040704770B50446006801694FF076
:102BE0000005C943890715D4C168C943890711D4B1
:102BF000E91E016101202077206880698007204656
:102C000002D0FFF7E7FF04E000F0F4F8204600F000
:102C1000B9F9257720680169C943490717D4C16804
:102C2000C943490713D46FF00401016102202077E2
:102C30002068806910F4407F204602D0FFF7CAFF69
:102C400004E000F0D7F8204600F09CF925772068D2
:102C50000169C943090716D4C168C943090712D4D9
:102C60006FF008010161042020772068C0698007A7
:102C7000204602D0FFF7AEFF04E000F0BBF820468C
:102C800000F080F9257720680169C943C90617D487
:102C9000C168C943C90613D46FF01001016108204F
:102CA00020772068C06910F4407F204602D0FFF7EB
:102CB00091FF04E000F09EF8204600F063F92577CC
:102CC00020680169C943C90708D1C168C943C90758
:102CD00004D1891E0161204600F0A4F92068016931
:102CE000C943090609D4C168C943090605D46FF070
:102CF000800101612046FFF7DDFE20680169C943BC
:102D0000490609D4C168C943490605D46FF040019A
:102D10000161204600F090F920680169C9438906E5
:102D20000BD4C168C943890607D46FF02001016143
:102D30002046BDE87040FFF7BEBE70BD30B585B01F
:102D4000002100910191029103910068244902241D
:102D5000244AB0F1804F1DD0234B244D98422BD1F3
:102D6000886940F004008861886900F004000490DC
:102D7000886940F0080088618869694600F00800A9
:102D80000490C020CDE9000410460394FFF750F9E9
:102D900003201EE0886940F0040088618869694664
:102DA00000F0040004900F20CDE9000410460394C5
:102DB000FFF73EF905B030BD0D4A9042FAD188695F
:102DC00040F008008861886900F0080004904FF422
:102DD0007070CDE90004694628460394E8E70000D6
:102DE000001002400008014000040040000C0140B7
:102DF00000080040704770B5044690F83C000D464E
:102E000001280AD0012084F83C0042B1042A18D0DD
:102E1000082A2AD00C2A4DD139E0022070BD206842
:102E200001F0F0FA2068816941F0080181612068B1
:102E3000816921F004018161206881692A69114357
:102E400011E0206801F006FB2068816941F400610F
:102E500081612068816921F48061816120688169D4
:102E60002A6941EA0221816124E0206801F01EFB09
:102E70002068C16941F00801C1612068C16921F081
:102E80000401C1612068C1692A69114311E0206809
:102E900001F038FB2068C16941F40061C16120681C
:102EA000C16921F48061C1612068C1692A6941EA70
:102EB0000221C161002084F83C0070BD10B50400FF
:102EC00003D094F83D0010B107E0012010BD0020B0
:102ED00084F83C00204600F01FF8022084F83D00F2
:102EE000211D206801F04AFA012084F8460084F888
:102EF0003E0084F83F0084F8400084F8410084F8E4
:102F0000420084F8430084F8440084F8450084F8C3
:102F10003D00002010BD000008B501681648B1F161
:102F2000804F0BD0154A914210D1C16941F0020186
:102F3000C161C06900F00200009008BDC16941F0A4
:102F40000101C161C06900F00100F5E70C4A91423E
:102F5000F3D1C16941F00401C161C069002200F0F0
:102F60000400009005211E20FFF7FCF9BDE8084091
:102F70001E20FFF7E9B900000010024000040040E5
:102F8000000800407047000010B50446022249B115
:102F900004290ED0082913D094F84100012816D036
:102FA000012010BD94F83E000128F9D184F83E209C
:102FB0000FE094F83F000128F2D184F83F2008E0A8
:102FC00094F840000128EBD184F8402001E084F817
:102FD00041200122206801F007FA0F492068884249
:102FE00003D1426C42F4004242642068884208D017
:102FF000B0F1804F05D00949884202D00849884283
:1030000004D1816801F00701062903D0016841F06D
:1030100001010160002010BD002C014000040040AF
:103020000008004000680349884201D1FFF708B951
:1030300070470000002C01407047704710B50446EF
:103040000068416994F83D20C1F3C011212A0BD1D9
:1030500051B1416921F080014161606B08B1FEF717
:10306000D9FD204601F0EFFA2068416994F83E202E
:10307000C1F38011222A0BD151B1416921F04001E5
:103080004161A06B08B1FEF7C5FD204601F0C3FA0F
:10309000002010BD70470000F8B5026804461068B3
:1030A000D168536910F00F0F4FF0000553D003F0B3
:1030B000010601F4907737435FD0C20705D0CA05F7
:1030C00003D5226C42F001022264420705D5DA07DB
:1030D00003D0226C42F002022264820705D5DA078F
:1030E00003D0226C42F004022264020707D501F0EB
:1030F0002002324303D0226C42F008022264226C88
:10310000002A34D0800604D5880602D5204601F076
:10311000A3FA20684069216CC0F38010090700D42D
:1031200030B3204601F077FA2068416949061BD583
:10313000416921F040014161A06BA8B15849416348
:10314000A06BFEF78BFD002811D0A06B416B01B086
:10315000BDE8F040084783060FD58B060DD5204605
:10316000BDE8F84001F078BA2046FFF793FFF8BDBC
:103170002046FFF78FFF2564F8BD266B2023012E24
:1031800052D1C60650D5CE064ED510685068009074
:10319000506940062AD5A16B086840680004000CFD
:1031A000EAD0A68D8642E7D9E0858869202818D024
:1031B000D06820F48070D0602068416921F001015E
:1031C00041612068416921F04001416184F83E304D
:1031D00025632068C16821F01001C160A06BFEF773
:1031E00019FDA08DE18D401A81B219E0A08DE18D0D
:1031F000401A81B2E08D0028BED00029BCD0D06832
:1032000020F49070D0602068426922F0010242618F
:1032100084F83E3025632068C26822F01002C26044
:103220002046FFF70AFFF8BD05062BD50D0629D568
:1032300094F83D002128F6D1A068B0F5805F01D157
:103240002069B0B1206A411C216221680078486081
:10325000E08C401E0004000CE084E4D12068C168CA
:1032600021F08001C1602068C16841F04001C16067
:10327000F8BD206A0088C0F308005060206A801CF6
:103280002062E5E74006F3D54806F1D5D16820462F
:1032900021F04001D16084F83D3000F016F9F8BD0E
:1032A0004945000870B5040004D094F83D0000259D
:1032B00010B106E0012070BD84F83C50204600F0BB
:1032C00023F8242084F83D002068C16821F40051CF
:1032D000C160204601F01CFA2068016921F4904188
:1032E00001612068416921F02A0141612068C168BB
:1032F00041F40051C1602564202084F83D0084F829
:103300003E00002070BD00002DE9F04385B000258F
:103310000095019502950395044603685948DFF826
:1033200060C102210322071580264FF01009634572
:103330004DD1836943F480438361836903F48043FF
:103340000493836943F0040383618069DFF8388163
:1033500000F0040004900802CDE9000103926946E0
:103360004046FEF765FECDE9007569464046029588
:10337000FEF75EFE464F4548C7E90005C7E902561D
:103380003D617D61BD613846FD61FEF75DFD08B1BF
:10339000FEF77EF9A7637C623D4F3C484437143802
:1033A000C7E902563D617D61BD61FD61C7E9000964
:1033B0003846FEF749FD08B1FEF76AF96763002257
:1033C000052125207C62FEF7CDFF252053E0DFF8A4
:1033D000C4C0634551D1C36943F48023C361C36949
:1033E00003F480230493836943F0080383618069B5
:1033F000CDE9007100F00800CDE90320264F6946B1
:103400003846FEF715FEF814CDE900056946384642
:103410000295FEF70DFE1E4F1C4888372838C7E975
:103420000005C7E902563D614FF440587D61C7E988
:1034300006583846FEF708FD08B1FEF729F9A763DC
:103440007C62134F1148CC373C38C7E902563D61C6
:103450007D61C7E90009C7E906583846FEF7F4FC64
:1034600008B1FEF715F967630022052127207C6269
:10347000FEF778FF2720FEF767FF05B0BDE8F08371
:10348000003801400010024000080140580002408E
:10349000B005002000480040000C014090F83E308C
:1034A000202B0ED159B152B190F83C30012B08D0ED
:1034B000012380F83C300023036301F085B901202B
:1034C000704702207047704770477047FEE7000062
:1034D00070B5104D4FF40064002221462846FEF7D7
:1034E000A4FE00F019F80122160331462846FEF723
:1034F0009CFE00F011F8002231462846FEF795FEAA
:1035000000F00AF821462846BDE870400122FEF787
:103510008CBE0000000801400020401C10F0FF009D
:10352000FBD070470C4800B5816985B041F00801B7
:1035300081618069694600F0080004904FF4C05032
:10354000009003200390112001900448FEF770FDC5
:1035500000F0AAF805B000BD0010024000080140CC
:1035600070B50C4C0122D1022046FEF75EFEFFF73B
:10357000D3FF0122150329462046FEF756FEFFF72A
:10358000CBFF002229462046FEF74FFEBDE87040E3
:10359000FFF7C2BF000801402DE9F0470024164E96
:1035A000804625464FF400694FF480576006040EAC
:1035B000012239463046FEF738FEFFF7ADFF494697
:1035C0003046FEF725FE08B1641CE4B200223946FD
:1035D0003046FEF72AFEFFF79FFF6D1CEDB2082D67
:1035E000E4D3B8F1000F04D0FFF772FF2046BDE826
:1035F000F087FFF7B5FFF9E7000801402DE9F0413A
:10360000174E054600244FF480574FF400682806F3
:1036100001D5012200E0002241463046FEF705FEBA
:10362000FFF77AFF012239463046FEF7FEFDFFF72D
:1036300073FF002239463046FEF7F7FD072C04D110
:10364000012241463046FEF7F0FD6806050EFFF701
:1036500063FF641CE4B2082CD9D3BDE8F0810000FC
:103660000008014070B501220E4DD40221462846C3
:10367000FEF7DBFD0122160331462846FEF7D5FD95
:10368000FFF74AFF002221462846FEF7CEFDFFF74E
:1036900043FF002231462846FEF7C7FDBDE87040D3
:1036A000FFF73ABF0008014070B50B4D4FF40064BE
:1036B000002221462846FEF7B8FD012211032846C4
:1036C000FEF7B3FDFFF728FF21462846BDE870400E
:1036D0000122FEF7AABD00000008014070B50122DA
:1036E000104DD40221462846FEF79FFDFFF714FF38
:1036F0000122160331462846FEF797FDFFF70CFF1F
:1037000021462846FEF784FD08B1012400E000248C
:10371000002231462846FEF788FDFFF7FDFE2046D1
:1037200070BD0000000801402DE9F0411D4614461F
:103730000F460646FFF796FF7006000EFFF75EFF86
:10374000FFF7CCFF20B1FFF7AFFF0120BDE8F0810C
:103750003846FFF753FFFFF7C1FFFFF783FF012054
:1037600000EB4600C0B2FFF749FFFFF7B7FF09E0E3
:10377000012C0DD05FF00100FFF70EFF641E05F86D
:10378000010BE4B2002CF3D1FFF78EFF0020DDE740
:103790000020F1E72DE9F0411E4615460F4604468C
:1037A000FFF760FF6006000EFFF728FFFFF796FFA8
:1037B00060B93846FFF722FFFFF790FF00240CE0C6
:1037C000305DFFF71BFFFFF789FF20B1FFF76CFFAC
:1037D0000120BDE8F081641CE4B2AC42F0D3FFF7F5
:1037E00063FF0020F5E700003EB500241148009477
:1037F000019402940E4984600160047304750125EC
:1038000005614FF460214460C161FEF731F808B1F1
:10381000FDF73EFF0420CDE9000569460294054806
:10382000FDF7A4FF002801D0FDF732FF3EBD0000E8
:1038300000240140DC030020194808B5416941F02B
:10384000010141614069002200F001000090052162
:103850000B20FEF787FD0B20FEF776FD00220521E9
:103860000C20FEF77FFD0C20FEF76EFD00220521E7
:103870000D20FEF777FD0D20FEF766FD00220521E5
:103880000E20FEF76FFD0E20FEF75EFD00220521E3
:103890000F20FEF767FDBDE808400F20FEF754BD7E
:1038A0000010024010B59CB01C2216496846FCF777
:1038B000C8FC0021684604F09DFC134C11491C22F1
:1038C00020601C3107A8FCF7BCFC002107A804F00D
:1038D00091FC0C4960601C2238310EA8FCF7B1FC49
:1038E00000210EA804F086FC0649A0601C22543179
:1038F00015A8FCF7A6FC002115A804F07BFCE060ED
:103900001CB010BD788E0008000000202DE9F04F9B
:1039100085B0002440480094019402940394816986
:1039200041F010018161816901F010010491816908
:1039300041F020018161816901F0200104918169D8
:1039400041F004018161816901F004010491816900
:1039500041F0080181618069DFF8C09000F0080043
:103960004FF460450490002229464846FEF75DFC6E
:10397000DFF8ACA048F23807002239465046FEF77F
:1039800054FCDFF8A0B04FF4C0580022414658461E
:10399000FEF74BFC0095022601250396CDE9015464
:1039A00069464846FEF744FB48F22000CDE9000492
:1039B000694658460294FEF73BFB4FF4E040CDE9E0
:1039C0000004694650460294FEF732FB00970396C6
:1039D000CDE9015469465046FEF72AFB28020090C3
:1039E0001148CDE9010469465846FEF721FBCDF8A0
:1039F00000800396CDE9015469465846FEF718FB4E
:103A0000002205211720FEF7ADFC1720FEF79CFCD5
:103A100005B0BDE8F08F000000100240001001402A
:103A2000000C0140000801400000311010B58AB0C0
:103A3000002407941C2168460894FCF71BFC2148CD
:103A40004FF08041C0E9001441F61F41C0E9024136
:103A500004618461FFF732FA08B1FDF719FE07949B
:103A600007A918480894FFF727F808B1FDF710FEDA
:103A70006020CDE9000402940022694611480494B4
:103A8000FFF7B9F908B1FDF703FE042269460D48B6
:103A9000FFF7B1F908B1FDF7FBFD082269460948B7
:103AA000FFF7A9F908B1FDF7F3FD0C2269460548B7
:103AB000FFF7A1F908B1FDF7EBFD0248FFF73EF96A
:103AC0000AB010BD5004002010B58AB0002407943D
:103AD0001C2168460894FCF7CDFB22482049C0E928
:103AE000001441F61F41C0E9024104618461FFF7FF
:103AF000E5F908B1FDF7CCFD079407A9194808942A
:103B0000FEF7DAFF08B1FDF7C3FD6020CDE9000440
:103B100002940022694613480494FFF76CF908B137
:103B2000FDF7B6FD042269460E48FFF764F908B1B7
:103B3000FDF7AEFD082269460A48FFF75CF908B1B7
:103B4000FDF7A6FD0C2269460648FFF754F908B1B7
:103B5000FDF79EFD0348FFF7F1F80AB010BD000025
:103B6000000400409804002010B58AB00024079497
:103B70001C2168460894FCF77DFB2248204901601F
:103B80004721C0E9011444F61F61C0E903148461B0
:103B9000FFF794F908B1FDF77BFD079407A91948D1
:103BA0000894FEF789FF08B1FDF772FD6020CDE9AA
:103BB000000402940022694612480494FFF71BF99E
:103BC00008B1FDF765FD042269460E48FFF713F9B9
:103BD00008B1FDF75DFD082269460A48FFF70BF9B9
:103BE00008B1FDF755FD0C2269460648FFF703F9B9
:103BF00008B1FDF74DFD0348FFF7A0F80AB010BD6E
:103C000000080040E00400200C4810B50A4901609B
:103C10004FF416514160002181600C22C160C0E95F
:103C200004128161C161FFF73DFB002803D0BDE8AC
:103C30001040FDF72DBD10BD0038014028050020C3
:103C40000C4810B50A4901604FF41651416000213B
:103C500081600C22C160C0E904128161C161FFF77B
:103C600021FB002803D0BDE81040FDF711BD10BDB9
:103C7000004800406C050020FEE77047002000F07F
:103C800001B8000070B506465FF0000404F1B00012
:103C9000C0B200F081FE002000F07EFE102000F097
:103CA0007BFE0025304600F07FFE6D1CEDB2802DBE
:103CB000F8D3641CE4B2082CE8D370BD10B56420BE
:103CC000FEF728F9AE2000F067FE202000F064FE29
:103CD000102000F061FEB02000F05EFEC82000F071
:103CE0005BFE002000F058FE102000F055FE402042
:103CF00000F052FE812000F04FFEFF2000F04CFE4D
:103D0000A12000F049FEA62000F046FEA82000F009
:103D100043FE3F2000F040FEA42000F03DFED320F3
:103D200000F03AFE002000F037FED52000F034FE0F
:103D3000F02000F031FED92000F02EFE222000F00D
:103D40002BFEDA2000F028FE122000F025FEDB20FA
:103D500000F022FE202000F01FFE8D2000F01CFE4F
:103D6000142000F019FEBDE81040AF2000F014BE92
:103D700010B50446B031C8B200F00EFE102040EA83
:103D8000141000F009FE04F00F00BDE8104040F0F0
:103D9000010000F001BE00002DE9F041203A0024AE
:103DA0000D468046D6B27F2803D900208D1C804660
:103DB000EDB2102B29460FD0FFF7DAFF164906EBBC
:103DC000460001EB4005285D00F0EEFD641CE4B206
:103DD000062CF8D3BDE8F081FFF7CAFF0F4F00BFF4
:103DE00004EB0610385C00F0DFFD641CE4B2082C24
:103DF000F6D36D1CE9B24046FFF7BAFF5FF000044E
:103E000004EB06103844007A00F0CEFD641CE4B2E6
:103E1000082CF5D3DEE70000008F00082891000889
:103E20002DE9F84307461D46144689461046089E6C
:103E3000FCF7B3FC804602462B46494638460096BE
:103E400000F026F84046FCF792FC2146FCF77FFA8A
:103E50000E49FCF77FFAFCF7A0FC804606EB460013
:103E600020F0004404FB0570C0B202232E22494614
:103E7000FFF792FF6D1C04FB0570C0B2022342469F
:103E80004946009600F004F8BDE8F8830000C842F7
:103E90002DE9F05F8046DDF82890002609EB490007
:103EA0001D4692468B46344620F0004723E0281BEF
:103EB000401EC1B20A2004F089F9BAFBF0F00A21D1
:103EC000B0FBF1F201FB120026B9691E8C4201DA47
:103ED00038B101263030C2B207FB0480C0B24B4675
:103EE00004E007FB0480C0B24B4620225946FFF78E
:103EF00053FF641CE4B2AC42D9D3BDE8F09F00008C
:103F00002DE9F047002591468A460446012B22D030
:103F1000DFF8BC80022B24D155E02038C7B27E2CBC
:103F200004D90AF10100002400F0FF0A514620469E
:103F3000FFF71EFF07EB4700002608EB4007B85DC0
:103F400000F032FD761CF6B2062EF8D3A41D6D1CCF
:103F5000E4B2EDB201E0DFF87C8019F8050000283A
:103F6000DBD1BDE8F0872038C7B2782C04D90AF13C
:103F70000100002400F0FF0A51462046FFF7F8FE3A
:103F80005FF0000606EB071118F8010000F00CFDC9
:103F9000761CF6B2082EF5D30AF10100C1B2204614
:103FA000FFF7E6FE5FF0000606EB071101EB0800E5
:103FB000007A00F0F9FC761CF6B2082EF4D308342F
:103FC0006D1CE4B2EDB219F805000028CBD1C8E7AA
:103FD00028910008008F000870B5134C41F61F456A
:103FE000066864682C1B6542AE4200DA056006680C
:103FF000A64200DD04600868A84200DA0D60086887
:10400000A04200DD0C601068A84200DA0D60106864
:10401000A04200DD0C601868A84200DA0D60186844
:10402000A04200DD0C6070BD800000202DE9F04F43
:104030004642002801DB074600E03746DFF8CCA007
:1040400000240AF1040B0BF1040EC1F10008C2F1C7
:10405000000CC3F100094FF08045052F1FDA00293D
:1040600001DB0F4600E04746052F18DA002A01DB86
:10407000174600E06746052F11DA002B01DB1F46CB
:1040800000E04F46052F0ADA6C63AC63EC632C64E6
:10409000CAF80040CBF80040CEF800402AE01C4FA0
:1040A00000287F6803DD38446863AC6304E06C6318
:1040B00000DA30463844A863002904DA08EB070028
:1040C000E8632C6402E0EC63C8192864002A06DA6D
:1040D0000CEB0701CAF80010CBF8004004E0CAF866
:1040E0000040D119CBF80010002B08DA09EB0701CA
:1040F000CEF8001005480C300460BDE8F08FCEF813
:1041000000400248D9190C300160F6E73404004041
:104110008000002070B540F6FC044FF44875A042C2
:1041200001DD204602E0A84200DA284640F6C41429
:104130004FF41675A14201DD214602E0A94200DAE2
:1041400029464FF4FA76A24201DD224602E0B2424D
:1041500000DA32464FF4FA64A34201DD234602E05E
:10416000AB4200DA2B46044C2060201D0160001D8C
:104170000260001D036070BD3408004010B504F0FB
:10418000D3FCFFF79BFDFFF779FD0121022326A257
:104190000846FFF7B5FE642404E0214625A000F0A0
:1041A0000BFC641E03F0B8F908B1002CF5DC002C00
:1041B0004FF002032ED023A203210120FFF7A0FE1F
:1041C00022A000F0F9FB3220FDF7A4FE022323A277
:1041D00003210120FFF794FEFFF750FD0121022388
:1041E00021A20846FFF78CFE022322A203212320EE
:1041F000FFF786FEC820FDF78DFE04F0DBFD00BF53
:1042000004F092FCFDF7CAF804F0D4FD052003F099
:10421000E5FFF5E718A203210120FFF771FE18A0C2
:1042200000F0CAFBFBE700006D707520696E6974D1
:104230002D2D00006D707520696E69742025640A4B
:10424000000000006D7075206F6B00003230304848
:104250005A2073746172740A000000006D34636147
:104260007220737461727400706F77657265642078
:1042700062790000484600006D707520657272001A
:104280006D707520696E697420657272000000009F
:104290002DE91040FCF7C0FD0A2003F09FFFF9E76D
:1042A0002DE91040FCF794FF642003F097FFF9E735
:1042B00010B504F039FCFDF771F904F07BFD00BF87
:1042C00004F032FCFDF77CF804F074FD642003F088
:1042D00085FFF5E710B5502080F31188BFF34F8FAD
:1042E000BFF36F8F04F002FD18B104494FF0805006
:1042F0000860002080F3118810BD000004ED00E08C
:1043000030B593B028216846FBF7B4FF14210AA802
:10431000FBF7B0FF002401200F94109411940104C6
:1043200012948DE8130004904FF4E010CDE90810CA
:10433000022507956846FEF72DFA0F20CDE90A05FC
:104340006802CDE90C4002210AA80E94FEF716F986
:10435000A80311900F950FA8FEF79AF813B030BD7F
:10436000704700000148FEF736BC0000C006002080
:104370000148FEF730BC0000E0040020F0B5026800
:10438000164B174C174D4FF08047984205D0B84256
:1043900003D0A04201D0A84203D122F070064A689F
:1043A0003243984205D0B84203D0A04201D0A8427F
:1043B00003D122F44074CA6822434C6922F080027F
:1043C000224302608A68C2620A688262984201D10E
:1043D0000969016301214161F0BD0000002C014029
:1043E000000400400008004010B501F01F03012147
:1043F000046A99408C430462016A9A401143016245
:1044000010BD000030B5026A22F001020262026AA9
:104410004368846924F073050C682C4322F002057C
:104420008A682A430A4DA8420BD122F00805CA68BF
:1044300023F440732A434D6922F004021D438B6923
:104440002B434360846149684163026230BD0000D0
:10445000002C014030B5026A22F010020262026AAA
:10446000436884690D6824F4E64444EA05248D68B1
:1044700022F0200242EA05120B4DA8420ED1CD686F
:1044800022F0800242EA05124D6923F4406343EAB8
:1044900085038D6922F0400243EA8503436084610D
:1044A00049688163026230BD002C014030B5026A68
:1044B00022F480720262036A4268C46923F40073C2
:1044C00024F073050C682C438D6843EA05230C4DDA
:1044D000A8420ED1CD6823F4006343EA05234D6959
:1044E00022F4405242EA05128D6923F4806342EAC5
:1044F00005124260C4614968C163036230BD0000B7
:10450000002C014030B5026A22F480520262046A33
:104510004268C3690D6823F4E64343EA05238D68C6
:1045200024F4005444EA0534064DA84204D14D69F0
:1045300022F4804242EA85124260C3614968016404
:10454000046230BD002C014010B5406A0021C185D5
:10455000C184FEF79FFD10BD70B5446A20684069B4
:1045600094F83D10C0F3C0100025212904D118B1E2
:10457000E584204600F067F82068406994F83E1012
:10458000C0F38010222904D118B1E585204600F03F
:1045900042F8206C40F0100020642046FEF77AFDBF
:1045A00070BD10B50146406A0968096889061BD4C8
:1045B0000021C1850168CA6822F48072CA6001685E
:1045C0004A6922F001024A6101684A6922F0400208
:1045D0004A61202180F83E10016B012904D1016855
:1045E000CA6822F01002CA60016B012902D0FEF7EE
:1045F0006AFF10BD818DFEF720FD10BD10B5406A29
:10460000016B012902D0FEF75FFF10BD818D4908C3
:10461000FEF713FD10BD0168CA6822F49072CA60EB
:1046200001684A6922F001024A61016B012904D143
:104630000168CA6822F01002CA60202180F83E108A
:104640000021016370470168CA6822F0C002CA6095
:10465000202180F83D10704708B590F83E102229BF
:1046600001D0022008BD82684FF480539A4201D1E4
:10467000016921B1816A9A421BD04AB10AE00268FD
:10468000816A5268C2F308020A80816A891C08E0C4
:10469000026972B10268526802F07F020A70816A90
:1046A000491C8162C18D491E0904090CC18503D0D2
:1046B00019E002685268F1E70168CA6822F0200236
:1046C000CA600168CA6822F48072CA6001684A69D7
:1046D00022F001024A61202180F83E10016B01297D
:1046E00003D0FEF7F0FE002008BD00210163016841
:1046F000CA6822F01002CA6001680A68D20602D5B0
:104700000A6849680091818DFEF797FCEBE700008D
:1047100070B5044600680169E26821F44051114314
:1047200001612169A0680843616908432168CA687A
:1047300041F20C639A430243CA6020684169A2694E
:1047400021F44071114341611E492068884202D121
:10475000FDF7DAFF01E0FDF7C7FF00EBC00101EB59
:104760000012606864218000B2FBF0F3B3FBF1F348
:104770006FF018067343B2FBF0F5B2FBF0F605EBF1
:104780008305322303EB0515B5FBF1F5B6FBF1F616
:1047900005F0F00505EB0615B2FBF0F6B2FBF0F004
:1047A000B0FBF1F06FF01802504306EB800003EB12
:1047B0000010B0FBF1F0216800F00F002844886081
:1047C00070BD00000038014038B581628285002547
:1047D000134604460564222084F83E00A26B134869
:1047E0009062A26B1248D062A26B12481063A06B59
:1047F0000A4645632168A06B091DFDF753FB20683D
:1048000001684168009184F83C50C16841F48071AE
:10481000C1602068416941F001014161206841693E
:1048200041F040014161002038BD0000A34500086F
:10483000FD4500085945000838B51448FEF72CFC22
:10484000124800680168C1F3001100291CD00168FA
:1048500041680091016840680C48FEF7EFFB0C4886
:10486000006840680B4CC0F11E00607004F10C0041
:10487000054603F0A5FC012020702946BDE838401C
:104880001E220248FEF70ABE38BD0000280500209F
:10489000B0050020B807002038B51448FEF7FCFB2F
:1048A000124800680168C1F3001100291CD001689A
:1048B00041680091016840680C48FEF7BFFB0C4856
:1048C000006840680B4CC0F11E00607004F1580095
:1048D0000546FCF73DFA012020702946BDE8384026
:1048E0001E220248FEF7DABD38BD00006C0500202C
:1048F0003806002040070020FEE700210A46431842
:10490000491CC9B283F858201E29F8D3A52181700B
:104910005A21C17002704270002100EB8103491CD2
:10492000DA620829F9DB00214318491C83F84C207E
:104930000729F9DB7047000070B51546FBF704FD49
:1049400004461148114E844204D931462046FBF7F3
:10495000A9FC04460E48844204DD31462046FBF79C
:10496000F3FC04460B4E28467169FBF7F3FC054641
:1049700084F00040F168FBF7EDFC2946FBF7E4FC0E
:10498000BDE87040FBF709BF000034C30000B4432A
:10499000000034439000002001B56B460122002145
:1049A0003C20FEF7F7FE08BD01B56B460122402111
:1049B0003C20FEF7EFFE08BD0FB4054B10B503A970
:1049C000044A029800F026FC10BC5DF814FB0000BD
:1049D000B96C000880010020490050EAC12018BFCE
:1049E00004204A0D18BF40F0010040F2FF72B2EB04
:1049F000515F08BF40F00200012808BF0520704742
:104A00000907090E002804DB00F1E02080F80014FB
:104A1000704700F00F0000F1E02080F8141D70478F
:104A20002DE9F74F144694B00021C4E902111599FD
:104A3000079121F00045C9498D4206DC1599C4E96A
:104A4000000117B00020BDE8F08FC549DFF814A3BE
:104A5000A9423CDD0799C44E0029C44FC44A1599A8
:104A6000534619DDFBF793FD554506D0C14AC24BAD
:104A7000FBF78DFDC4E900010AE04FF0D352BE4BB5
:104A8000FBF785FD32463B46FBF781FDC4E900019B
:104A900017B00120BDE8F08FFBF7D8FC554506D0D4
:104AA000B44AB54BFBF7D2FCC4E900010AE04FF071
:104AB000D352B14BFBF7CAFC32463B46FBF7C6FC70
:104AC000C4E9000117B04FF0FF30BDE8F08FAB49EB
:104AD000A942159978DB21F0004183468846A84A0F
:104AE000A84BFBF75AFD0022A74BFBF7AFFCFBF7E7
:104AF00081FE0990FBF740FE06460F469C4A53464E
:104B0000FBF74BFD43465A46FBF744FD80468A4679
:104B1000984A994B30463946FBF73FFD2A0D01254F
:104B20000B9242465346FBF735FD032DC4E90001C5
:104B300039D00B98C1F30A51401A05EB45111139D0
:104B4000814230DA9148C346784400EB0510CDF835
:104B50000CA00C90D0E9002330463946FBF71DFD30
:104B600002460B460491069058460399FBF70FFD49
:104B700080468A4602460B4658460399FBF707FDD6
:104B8000049B069AFBF703FD83460C980391394674
:104B9000D0E902233046FBF700FD5A46039BFBF7A2
:104BA000F6FC6D1CBDE707980028A2BF099817B056
:104BB000BDE8F08F616881F000416160099817B02D
:104BC0004042BDE8F08FFFE784461598C1F313011A
:104BD000C0F30A50A0F2F5304FEA601800F01F064B
:104BE000C6F12000139000200690079041F4801E2B
:104BF00005206D4676B1664A08EB00017A4452F80A
:104C0000213002EB8101B3404A68139922FA01F185
:104C1000194305E05F4908EB0002794451F822107E
:104C2000A1FB0E27A1FB0C131A449A4234BF0123A7
:104C3000002303EB070A05EB8003D3E901B70F4418
:104C40008F4234BF0121002193448B4411B193451D
:104C500002D903E0934501D2012100E00021C3E91C
:104C600001B7514445F82010011EA0F10100C1DC3C
:104C70000298059F00F10050800F12900298DDE924
:104C800003568000FBF778FD834628460D91FBF71D
:104C9000BDFF6FF01D02FBF7F7FECDE90E013046B8
:104CA000FBF7B4FF6FF03D02FBF7EEFE80468A464D
:104CB0003846FBF7ABFF6FF05D02FBF7E5FE0746FA
:104CC000424653461191FBF7C1FBDDE90E23FBF78A
:104CD000BDFB5A460D9BFBF7B9FB00250E465A4615
:104CE00028460D9BFBF753FCDDE90E23FBF74FFC39
:104CF00042465346FBF74BFC3A46119BFBF74AFCF6
:104D0000DFF898A0244A5346FBF747FC074688463D
:104D1000234A244B31462846FBF73FFC3A4643469C
:104D2000FBF794FB074688464FF0A84253463146AE
:104D30002846FBF732FC3A464346FBF787FB159AB9
:104D400012F0004F04D0129A81F0004152421292A8
:104D5000C4E90001129817B0BDE8F08FFB21E93FCC
:104D60007CD90240FB21F93F7370032E8A19A33BC3
:104D7000000040543163621A61B4D03DFB213941D7
:104D800083C8C96D305FE43F0000E03F84590000F4
:104D900000590000E2580000182D4454FB21F93D51
:104DA0003326A611460B113C2DE9FF4D21F000489A
:104DB00007460C46B8F1795F08DAFBF71BFD0028BF
:104DC00001BF0020324904B0BDE8F08D3A462346C9
:104DD00010461946FBF7E1FB054602462D480E46F4
:104DE0000B460621784400F05DF82A463346FBF76F
:104DF000D4FBDDE9022382468B4638462146FBF789
:104E0000CCFB04460F4652465B4628463146FBF72C
:104E1000C4FB22463B46FBF7BAFB07468A464FF0E7
:104E2000FF3228463146FBF72FFE1B4A90450ADA2F
:104E30003A465346FBF7ABFB04B00022BDE8F04D09
:104E4000134BFBF7A7BB154A4245A8BFA8F50015B1
:104E50004FF00004B8BF124D22462B46FBF797FBDC
:104E60000646884622462B4600200949FBF78FFB61
:104E700004460D463A46534630464146FBF787FB0B
:104E800004B022462B46BDE8F04DFBF783BB000083
:104E90000000F03FB05600003333D33F0000E93F3D
:104EA0000000D23F2DE9F0414F1E00EBC701044640
:104EB000D1E9000115461E4637F006020DD02A46FC
:104EC0003346FBF76AFB7F1E04EBC703D3E90023DD
:104ED000FBF7BCFA37F00602F1D1022F25D0042FE0
:104EE00013D0062F18BFBDE8F0812A463346FBF7E2
:104EF00054FBD4E90A23FBF7A9FA2A463346FBF709
:104F00004CFBD4E90823FBF7A1FA2A463346FBF70A
:104F100044FBD4E90623FBF799FA2A463346FBF70C
:104F20003CFBD4E90423FBF791FA2A463346FBF70E
:104F300034FBD4E90223FBF789FA2A463346FBF710
:104F40002CFBD4E90023BDE8F041FBF77FBA000059
:104F50002DE9FF4D054621F0004084B00C46B0F12C
:104F6000795F0BDA2846FFF737FD042808BF00F009
:104F700071F8284608B02146BDE8F08D2A460B4658
:104F80001046FBF70AFB06460F462A462346FBF768
:104F900004FB804626488A4632463B460521784433
:104FA000FFF780FF83461098029160B3214A224B9D
:104FB00040465146FBF7F1FACDE900015A4640461A
:104FC0005146029BFBF7E9FA82468846DDE9060175
:104FD0004FF0FF32FBF758FD52464346FBF7D7FA36
:104FE00032463B46FBF7D9FADDE90623FBF7CFFA59
:104FF000DDE90023FBF7CBFA08B02A462346BDE8DB
:10500000F04DFBF7C7BA0B465A4630463946FBF718
:10501000C4FA084A084BFBF719FA42465346FBF715
:10502000BCFA08B02A462346BDE8F04DFBF70EBA9D
:10503000F6550000495555555555C5BF0122FBF79A
:1050400023BDFBF703BA0022134610461146FBF7B7
:1050500016BB0000024A00201107FBF715BD000037
:1050600001FDFFFF02E008C8121F08C1002AFAD1A3
:1050700070477047002001E001C1121F002AFBD1D8
:10508000704700000149086070470000840100205B
:105090002DE9FF5F82B00021DDE90430020DDDF86B
:1050A00040B0034318D044F61050A2F2FF324243FE
:1050B0001514119801281FD0A5EB0B00401C5FEAC6
:1050C000000A4FF000064E4FDFF83891B0465046C8
:1050D00015D5CAF1000413E0119801244AA3012850
:1050E00001D16FEA0B010298119AC0E90031C0E9C1
:1050F000024206B0BDE8F09FCBF10000DFE70446B6
:105100000021404A491842EB0450CDE9001012E05A
:10511000E00707D032463B4640464946FBF73DFA9A
:105120008046894632463B4610461946FBF735FA1B
:1051300006460F466410002CEAD1DDE90401DDE9E2
:105140000023BAF1000F06DAFBF727FA42464B4676
:10515000FBF723FA05E0FBF792FA42464B46FBF7D2
:105160008EFA04460E460022284BFBF725FD03D895
:105170004FF0FF30014607E00022254B2046314624
:10518000FBF764F9FBF7E8FC102409E0002C0ADBCC
:105190000A220023FBF792FB039B30321A55641E50
:1051A00050EA0102F2D1641C039AC4F111031444C1
:1051B000119A012A03D0012208430DD10AE00843C5
:1051C00004D000204FF0110B119072E7A3EB0B05F8
:1051D0006D1E0DE05B4504DD4FF0000205F1010599
:1051E00004E003DA4FF00002A5F10105002AECD03B
:1051F00002981199C0E90231C0E9004579E7000041
:10520000000014400000F03F300000000000F043B8
:105210000000E03F2DE9FF4F95B09A4688460646CC
:105220000025EEE1252877D100242746F94A0121FF
:10523000039400E0044316F8013F203B01FA03F019
:105240001042F7D130782A2811D06FF02F03307830
:10525000A0F13002092A16D8039A44F0020402EBA6
:10526000820203EB42021044761C0390EFE758F8E9
:10527000042B0392002A03DA504244F400540390B2
:1052800044F00204761C30782E2816D116F8010F4F
:1052900044F004042A280DD06FF02F023078A0F1DA
:1052A0003003092B09D807EB870302EB4303C71828
:1052B000761CF3E758F8047B761C30786C280FD006
:1052C00006DC4C2817D068280DD06A2814D104E0D9
:1052D000742810D07A280FD10DE044F400140AE0AD
:1052E00044F4801401E044F440147278824202D104
:1052F00004F58014761C761C307866280BD013DCFD
:10530000582877D009DC002875D04528F6D04628E3
:10531000F4D047281AD193E118E0632835D06428E7
:1053200079D0652812D18BE1702873D008DC67280A
:10533000F1D069286FD06E280DD06F2806D1ACE06F
:1053400073282CD0752874D0782853D052461799DA
:1053500090476D1C54E1C4F30250022809D0032881
:105360000DD0D8F8001004280DD00D6008F1040805
:1053700046E1D8F80010EA17C1E90052F6E7D8F87C
:1053800000100D80F2E70D70F0E718F8041B8DF89F
:10539000001000208DF80100EB46012003E058F8D2
:1053A00004BB4FF0FF3061074FF0000102D40DE065
:1053B00009F101018946B9420FDA8145F8DB1BF892
:1053C00009100029F4D108E009F101018946814260
:1053D000FADB1BF809100029F6D103985346A0EB1D
:1053E000090721463846179A00F080FA284400EB56
:1053F000090507E044E008E10DE01BF8010B524607
:1054000017999047B9F10109F7D25346214638461A
:10541000179AF2E039E00A21C4F302524FF0000B70
:105420000091022A06D058F8040BC117032A09D0AC
:105430000AE023E008F1070020F00702F2E8020189
:10544000904605E000B2C117042A01D140B2C1174D
:10545000002906DA0A460021404261EB02012D22B2
:1054600002E0220504D52B228DF80420012203E05E
:10547000E20701D02022F7E7914657E00A2100E039
:1054800010214FF0000B00910BE010214FF0000BAA
:1054900044F004040827009103E008204FF0000BBB
:1054A0000090C4F30252022A05D058F8040B0021E0
:1054B000032A08D008E008F1070020F00702F2E80C
:1054C0000201904603E080B2042A00D1C0B24FF03E
:1054D000000922072AD53278702A07D0DDF800C0EB
:1054E0008CF0100C5CEA0B0C05D00EE040228DF81D
:1054F0000420012208E050EA010306D030238DF891
:1055000004308DF8052002229146009B83F00803A9
:1055100053EA0B030AD150EA010201D1620705D513
:1055200030228DF804204FF001097F1E3278582A6E
:1055300004D039A20C920CAA02920BE03BA2F9E72C
:105540005B46009AFBF7BAF90C9B9B5C029A521ED1
:105550000292137050EA0102F2D1029804A9081ACB
:1055600000F1200B600702D524F4803400E001270D
:105570005F4502DDA7EB0B0000E0002000EB0B0114
:10558000009003984944401A0390E00306D4534620
:105590002146179A039800F0A9F90544002706E070
:1055A00001A85246C05D179990476D1C7F1C4F455E
:1055B000F6DBE0030CD553462146179A039800F01A
:1055C00095F9054404E030205246179990476D1C28
:1055D0000099481E00900029F5DC08E00298029925
:1055E00052460078491C0291179990476D1CBBF1F7
:1055F0000001ABF1010BF1DC5BE100F065F9054462
:10560000761C307800287FF40DAE19B02846BDE82E
:10561000F08F00000928010030313233343536373D
:1056200038396162636465660000000030313233EE
:10563000343536373839414243444546000000008E
:10564000600700D4062708F1070020F00700F0E803
:105650000223804603F0004C5FEA0C0001D097A0C3
:1056600009E0200501D596A005E0E00701D095A04E
:1056700001E0AFF24C001390307823F0004365282E
:105680000CD006DC452809D046281DD047287FD1FC
:105690003BE0662818D067287AD136E00021112F28
:1056A00001DB112000E0781CCDE9000104A90CA861
:1056B000FFF7EEFCDDE90D010C9A4FF0000B07F14E
:1056C0000109109200914EE04FF000400097CDE9A3
:1056D000011004A90CA8FFF7DBFCDDE90D020C9B0F
:1056E0000F994FF0000B91461093009211B9791C5D
:1056F00000EB0109B7EB090003D4C0F1FF3B07F150
:105700000109A9EB0700019042E0012F00DA01270F
:105710000021112F01DD112000E03846CDE9000104
:1057200004A90CA8FFF7B4FCDDE90D010C9A009167
:105730004FF0000BB946109221070FD4009A4A454A
:1057400003DA914601E0A9F10109B9F1010F05DD84
:10575000109AA9F10101515C3029F4D0B84202DA63
:1057600010F1040F03DA0121CDE9011010E0002847
:1057700003DC8344A9EB000102E0411C494500DD44
:105780008946A0EB0B00401C01904FF000400290B6
:10579000200705D40198484502DB4FF0FF30019007
:1057A00000208DF84B0002980DF14B07B0F1004F2F
:1057B00025D002200C902B200D90029800280CDAA6
:1057C000404202902D200D9007E00A210298FBF73D
:1057D0005FF83031029007F8011D0C99481E0C90BB
:1057E0000029F2DC02980028EFD1791E0D9808708C
:1057F000307800F0200040F0450007F8020D11A8B5
:10580000C01BC01D02901398007800B1012000EB6E
:105810000901019801EBE071029801440398401AD4
:10582000401E0390E00306D453462146179A03987E
:1058300000F05CF805441398007818B152461799A7
:1058400090476D1CE00323D553462146179A0398D1
:1058500000F04CF805441BE0BBF1000F07DB00989B
:10586000584504DD1098179910F80B0001E01799BE
:1058700030205246904701980BF1010B401E05F174
:105880000105019004D12E205246179990476D1CB6
:10589000B9F10001A9F10109DEDC05E017F8010BFF
:1058A0005246179990476D1C0299481E0290002994
:1058B000F4DC53462146179A03989EE62D0000001B
:1058C0002B000000200000002DE9F04104460025D7
:1058D0001E461746880404D405E039462020B04708
:1058E0006D1C641EF9D52846BDE8F0812DE9F04114
:1058F000044600251E469046C80301D5302700E027
:105900002027880404D505E041463846B0476D1C81
:10591000641EF9D52846BDE8F08100002DE9FE4F50
:1059200007460E460025684601F0D0F900246FF0C6
:105930000F0AE8464FF0010957F8240056F82410E2
:10594000401A00D54042FAF709FF5146FAF772FDB6
:1059500058F8241011F0FF4F0BD0FAF72DFD4FF03F
:105960007E51FAF7F1FC0A4920F00040884205DC3C
:1059700007E0084908440849884202D309FA04F0BC
:105980000543641C032CD7DB2846BDE8FE8F0000CE
:10599000295C0F3E666666C19A99D9002DE9F04DE3
:1059A0000546DFF8388221F000408D4F82B00C466A
:1059B000404520DBA0EB080129430BD089498842F0
:1059C00001DC10D17DB102B028462146BDE8F04D82
:1059D000FFF734BB002CC7BF002001468248394680
:1059E00002B0BDE8F08D0120FFF74CFB02B0BDE82E
:1059F000F04DFFF728BB7D49884244DA7C4981425B
:105A0000A1BF79487B4902B0BDE8F08D2A46234604
:105A100010461946FAF7C1FD8346024676480E46FF
:105A20000B4606217844FFF73DFA5A463346FAF70B
:105A3000B4FD074671488A465A46334604217844E5
:105A4000FFF730FA5A463346FAF7A7FD00224346DD
:105A5000FAF7FCFC02460B4638465146FAF70FFEB1
:105A60002A462346FAF799FD654A664BFAF792FDF6
:105A70002A462346FAF78EFD02B05B4ABDE8F04D98
:105A80005C4BFAF787BD002C4FF000024BDA46461C
:105A9000434628462146FAF7D9FC4FF0FF32FAF781
:105AA000F3FF0446024658480D460B46062178444B
:105AB000FFF7F8F922462B46FAF76FFD8046534868
:105AC0008A4622462B4604217844FFF7EBF922460A
:105AD0002B46FAF762FD00223346FAF7B7FC06467A
